:020000040000FA
:1000000083160317880189018316031300308700C4
:100010008316031300308800831203138312031323
:10002000FF30A000FF30A100FF30A2002020A00B75
:1000300016283520A10B19284A20A20B1C281028AD
:10004000013088006520AA206220023088006920E3
:10005000AA206220043088006D20AA206220083087
:1000600088007120AA2062200800013088007520D5
:10007000AA206220023088006920AA206220043071
:1000800088007920AA206220083088007120AA20E8
:1000900062200800013088007120AA20622002300E
:1000A00088007D20AA206220043088008120AA20B8
:1000B0006220083088007120AA2062200800FF30EA
:1000C00087000800FF308800080089308700AA20D8
:1000D0000800C0308700AA200800C7308700AA2087
:1000E000080088308700AA2008008C308700AA20EA
:1000F0000800A4308700AA200800CF308700AA207B
:100100000800C6308700AA200800FF300708AA2090
:10011000080079300708AA2008008530A300A33022
:10012000A4000230A500A30B9628A40B9828A50BC9
:1001300093289A289B2808000330A3001830A400B5
:100140000230A500A30BA528A40BA728A50BA22865
:0E015000A9280800A530A300A30BAC280800C6
:02015E0000346B
:02016000003469
:02400E0032205E
:02401000FF3E71
:00000001FF
